:020000040800F2
:10000000A80400200D020008431D00085D1A000826
:10001000411D0008B1060008811F00080000000013
:10002000000000000000000000000000691D000842
:100030007507000800000000671D00086B1D000820
:1000400027020008270200082702000827020008EC
:1000500027020008270200082702000827020008DC
:1000600027020008270200082702000827020008CC
:1000700027020008270200082702000827020008BC
:1000800027020008270200082702000827020008AC
:10009000270200082702000827020008270200089C
:1000A000270200082702000827020008270200088C
:1000B000270200082702000827020008270200087C
:1000C000270200082702000827020008270200086C
:1000D000270200082702000827020008270200085C
:1000E000270200082702000827020008270200084C
:1000F000270200082702000827020008270200083C
:10010000270200082702000827020008270200082B
:10011000270200082702000827020008270200081B
:10012000270200082702000827020008270200080B
:1001300027020008270200082702000827020008FB
:1001400027020008270200082702000827020008EB
:1001500027020008270200082702000827020008DB
:1001600027020008270200082702000827020008CB
:1001700027020008270200082702000800000000EC
:1001800027020008270200082702000827020008AB
:10019000270200082702000827020008270200089B
:1001A000270200082702000827020008270200088B
:1001B000270200082702000827020008270200087B
:1001C000270200082702000800000000270200089C
:1001D000270200082702000827020008270200085B
:1001E000270200082702000827020008270200084B
:1001F0002702000827020008DFF80CD000F046FABA
:1002000000480047A11F0008A804002006488047B6
:1002100006480047FEE7FEE7FEE7FEE7FEE7FEE7EB
:10022000FEE7FEE7FEE7FEE7F91D0008F90100081A
:100230002DE9F05F0546002092469B46884606461B
:10024000814640241BE0284641464746224600F0AE
:100250000CFA53465A46C01A914110D3114618461B
:10026000224600F0F3F92D1A67EB01084F462246AB
:100270000120002100F0EAF917EB00094E41201E91
:10028000A4F10104DFDC484631462A464346BDE876
:10029000F09F000070B5054601B90721541A241DCE
:1002A000B4F5B67F09DD286800F036F9A04204DC19
:1002B0002868401C2860012070BD002C05DA2868E1
:1002C000401E286000F028F90444072094FBF0F059
:1002D000401C70BD2DE9F04F89B01D468A4680460E
:1002E000002401AF4FF0070B0192079057F824103C
:1002F00011F8010B47F8241048B125280DD0BAF1A8
:10030000010F06D908F8010BAAF1010A5CE0641E8E
:100310005AE0002009B0BDE8F08F11F8010B47F852
:1003200024100028F3D002264FF030095A284BD071
:1003300020DC4D2873D014DC442871D008DC25283B
:10034000DDD041282AD042282ED043283CD130E0AD
:10035000462847D0472857D0482862D0492833D16B
:1003600061E0523808282FD2DFE800F0787AA683BF
:100370008A97A6A86138192826D2DFE800F00D1365
:1003800018202E253513255C252560642566256DEE
:10039000257375258B9BA0006AA000E070A0A96959
:1003A0000091B4E07DA000E088482969F8E788A0C2
:1003B00007E06969642091FBF0F0133082E0E8689F
:1003C00080E0641C47F82400002C8FDA002088F8B5
:1003D00000000799A8EB01009CE7E8684FF02009AE
:1003E000009070E07EA0ECE7686900F26C7000900D
:1003F000D5E906126846FFF74DFF0099642091FB8E
:10040000F0F200FB12105DE06869042600F26C70E7
:100410000090D5E906126846FFF73CFF53E010E074
:1004200048E0A8684EE0A8680C21173090FBF1F274
:1004300001FB120001E0E8690326401C42E0286944
:10044000FBE768683EE069A0BBE7A8680C2801DA12
:1004500067A0B6E767A0B4E767A0B2E769A0B0E716
:1004600028682FE069A0ACE7A869012608BB07202F
:1004700028E0D5E90610401AC01D90FBFBF021E0F2
:10048000686900F26C700090D5E906126846FFF7C3
:1004900001FF17E00126A86914E0A9695846891DE3
:1004A00091FBF0F20BFB1211EA69511AC91D91FB85
:1004B000FBF007E056A084E758A082E704266869AD
:1004C00000F26C70009000218DF8181006A80A2127
:1004D00013E0009A92FBF1F301FB1322303200F893
:1004E000012D009A92FBF1F2009232B901E000F87E
:1004F000019D321EA6F10106F9DC321EA6F10106AD
:10050000E7DC5EE710F8011B0029FBD100994A1EC9
:1005100000920029F6DC54E781070CD1642190FB9E
:10052000F1F201FB120151B94FF4C87190FBF1F2E5
:1005300001FB120018B1002000F26D10704701207D
:10054000FAE7000053756E004D6F6E00547565003C
:100550005765640054687500467269005361740001
:1005600053756E646179004D6F6E646179005475E6
:100570006573646179005765646E657364617900C1
:1005800054687572736461790046726964617900B8
:100590005361747572646179000000004A616E00F5
:1005A000466562004D617200417072004D617900D4
:1005B0004A756E004A756C0041756700536570009E
:1005C0004F6374004E6F7600446563002820000876
:1005D000256120256220256520255420255900000D
:1005E00025592D256D2D2564000000000A0000000E
:1005F000414D0000504D000025493A254D3A255304
:100600002025700025483A254D0000000900000013
:10061000256D2F25642F25790000000025483A25F7
:100620004D3A255300000000D2B201E000F8012B42
:10063000491EFBD270470022F6E710B513460A4662
:1006400004461946FFF7F0FF204610BD202A04DBC0
:10065000203A00FA02F1002070479140C2F12003D5
:1006600020FA03F3194390407047202A04DB203A14
:1006700021FA02F00021704721FA02F3D040C2F1C2
:10068000200291400843194670470000064C074D70
:1006900006E0E06840F0010394E807009847103452
:1006A000AC42F6D3FFF7ACFD80200008A020000884
:1006B000FEE700007FB5044641F288350020019036
:1006C00001230290D0218DF80C0003AA2848009540
:1006D00000F08EFA26480723D121009501AA00F0E8
:1006E000EFF99DF80400010900F00F0001EB810112
:1006F00000EB410020709DF80500010900F00F009B
:1007000001EB810100EB410060709DF806000109DA
:1007100000F00F0001EB810100EB4100A0709DF89B
:100720000700010900F00F0001EB810100EB41001F
:10073000E0709DF80800010900F00F0001EB810155
:1007400000EB410020719DF80900010900F00F0045
:1007500001EB810100EB410060719DF80A00010985
:1007600000F00F0001EB810100EB4100E0807FBD54
:1007700018000020704700002DE9F84FDFF89CE1D9
:1007800000224FF001084FF0030B4FF00F0A00BF9B
:100790000B6808FA02F42340A34271D14D68022D80
:1007A00001D0122D0FD1D5080E69570700EB850532
:1007B000A9462D6AFF0E0AFA07FCBE4025EA0C0581
:1007C0002E43C9F820600F79550006680BFA05FC26
:1007D00007F0030726EA0C06AF40374307604E6870
:1007E000012E05D0022E03D0112E01D0122E0ED1D3
:1007F0008668CF6826EA0C06AF40374387604668B4
:100800000F79A643C7F30017974037434760C46882
:100810008E6824EA0C04AE402643C6604C68E400AF
:1008200075D53F4C256845F480452560246822F045
:100830000306950704F4804400943A4C2D0F264497
:10084000D6F80848DFF8E0C00AFA05F7604524EA60
:10085000070401D100272EE0344FB84201D101270F
:1008600029E0334FB84201D1022724E0314FB8428A
:1008700001D103271FE0304FB84202D104271AE00C
:1008800045E02E4FB84201D1052714E02C4FB84265
:1008900001D106270FE02B4FB84201D107270AE00C
:1008A000294FB84201D1082705E0284FB84201D1AD
:1008B000092700E00A27AF4027437546C6F80878A5
:1008C0004E68DEF80040F60324EA030400D51C431A
:1008D000124E2C60361D4D683468AD0324EA0304C3
:1008E00000D51C430D4F346008374D683C68ED025D
:1008F00024EA030400D51C43084D3C600C354E68C7
:100900002C68B60224EA030400D51C432C60521C58
:10091000102AFFF43DAFBDE8F88F0000003C014015
:100920004438024000300140000002400004024010
:1009300000080240000C0240001002400014024077
:1009400000180240001C0240002002400024024027
:1009500001488068704700000800002030B590F81A
:100960004120202A24D190F84020012A20D00123C0
:1009700080F84030242280F841202023002402689F
:10098000156825F0010515600268156825F4805585
:100990001560026815680D43156001680A6842F029
:1009A00001020A6080F8413080F84040002030BDEC
:1009B000022030BD30B590F84120202A22D190F895
:1009C0004020012A1ED0012380F84030242280F8E4
:1009D0004120202400250268136823F001031360DE
:1009E0000268136823F4706343EA0121116001680F
:1009F0000A6842F001020A6080F8414080F84050E5
:100A0000002030BD022030BD70B5040004D094F841
:100A10004100002510B106E0012070BD204684F899
:100A2000405000F07BF9242084F8410020680168E0
:100A300021F001010160D4E9001020F0706008612C
:100A40002068816821F400418160E0682168012804
:100A5000A06806D040F404408860E068022803D013
:100A600006E040F40040F7E721684FF4006048607A
:100A700020212068114A4368134343602068C268FC
:100A800022F40042C26054F8106B0DCC104340EACF
:100A90000320F06054F81C3CD4E9000210431860B5
:100AA00054F81C0D026842F001020260656484F88B
:100AB0004110256384F84250002070BD0080000280
:100AC0002DE9F84F044690F841001F469046DDF8A6
:100AD00028A08B4620287DD194F84000012879D0A9
:100AE000012084F84000FFF733FF01220646192356
:100AF0000090D103204601F017F838BB00252221D1
:100B000084F84110102084F8420065646785618D87
:100B1000FF2735484FF00079C4F82480FF294FF0B3
:100B20008078656303D927853A46009032E0618D6D
:100B30002185009033E05946204600F0DFFF32E087
:100B400001F01CF818B1606C042848D019E0216845
:100B5000606A496A421C62620170208D401E000476
:100B6000000C2085618DA1F1010161851BD1608D93
:100B7000C8B10022534680212046009600F0D4FFE1
:100B800010B10320BDE8F88F608DFF2804D92785B8
:100B90003A4600954346CEE7608D208500954B464A
:100BA00094F82820C7E7608D324651460028204639
:100BB000C6D101F029F80028C5D1206820210B4AB0
:100BC000C161206843681340436084F8411084F891
:100BD000425000E005E0002084F84050D2E70120B8
:100BE000D0E70220CEE700000024008000E800FEED
:100BF0002DE9F84F044690F841001F469046DDF875
:100C000028A08B4620287CD194F8400001287FD072
:100C1000012084F84000FFF79BFE012206461923BD
:100C20000090D103204600F07FFF38BB0025212132
:100C300084F84110102084F8420065646785618D56
:100C4000FF2734484FF00079C4F82480FF294FF083
:100C50008078656303D927853A46009031E0618D3D
:100C60002185009032E05946204600F047FF31E0F0
:100C700000F0F2FF18B1606C042847D018E0606AF9
:100C8000411C6162017820688162608D401E608530
:100C9000208D401E0004000C20851BD1608DC8B142
:100CA0000022534680212046009600F03DFF10B1FF
:100CB0000320BDE8F88F608DFF2804D927853A46C8
:100CC00000954346CFE7608D208500954B4694F80C
:100CD0002820C8E7608D3246514600282046C7D1FB
:100CE00000F092FF0028C6D1206820210A4AC16185
:100CF000206843681340436084F8411084F84250F0
:100D000000E005E0002084F84050D2E70120D0E761
:100D10000220CEE70020008000E800FE10B586B07B
:100D2000044614216846FFF786FC12492068884271
:100D30001ED11148016841F02001016000681221B4
:100D4000012200F020000590032304244FF44040CA
:100D50008DE81F0009486946FFF70EFD0648103070
:100D6000016841F080710160006800F080700590BA
:100D700006B010BD00600040303802400014024050
:100D800002488168027811448160704708000020A1
:100D9000032010B500F060F8002000F005F800F026
:100DA00023F8002010BD000070B50D4D04464FF42F
:100DB0007A700C4A29781268B0FBF1F0B2FBF0F0BF
:100DC00000F060FD48B9102C07D200222146501EC9
:100DD00000F022F800206C6070BD012070BD0000A2
:100DE00008000020140000200A4808B5016841F0FE
:100DF00080510160006800F0805000900548001D9F
:100E0000016841F480410160006800F48040009076
:100E100008BD0000403802400E4BF0B41B680D4680
:100E2000C3F30223C3F10706042E00D90426191DBB
:100E3000072901D2002300E0DB1E012404FA06F199
:100E40009C40491E2940641E994014402143F0BC37
:100E500000F078BF0CED00E0064900F0070210B585
:100E60004FF6FF040868044B204040EA0220184374
:100E7000086010BD0CED00E00000FA052DE9F84F08
:100E800004460078DFF824944FF000063746C00788
:100E90000ED0D9F8001021F40001C9F80010D9F8DB
:100EA0000010626B1143C9F80010606B00B9012695
:100EB000FE4D2068843500030ED5E16B286820F4D0
:100EC000401008432860E06BB0F5801F01D010B1DE
:100ED00002E0012600E0012720684FF4800BC002E9
:100EE0000CD5216C286820F4400008432860206C51
:100EF000584501D1012601E000B901272068C10150
:100F000000D50126800666D5E8483830016841F0F2
:100F1000805101600068DFF898A300F080500090D5
:100F2000DAF8001041F48071CAF80010FFF710FDE4
:100F3000804605E0FFF70CFDA0EB080064287DD893
:100F4000DAF80000C005F5D5DFF8608308F168081D
:100F5000D8F8000010F440702AD0218E01F44071BE
:100F6000814225D0D8F80010D8F8002021F4407133
:100F700042F48032C8F80020D8F8002022F48032F1
:100F8000C8F80020C8F80010D8F80000C0070FD03B
:100F9000FFF7DEFC824607E0FFF7DAFCA0EB0A0170
:100FA00041F288308142CAD8D8F800008007F3D5D2
:100FB000206BC0F3012103297ED0D9F8001021F461
:100FC000F811C9F80010228ED8F80010C2F30B02F5
:100FD0001143C8F800102078C00607D5286820F013
:100FE000807028602868A16B084328602188AF487A
:100FF0008830490405D5626E016821F440311143FF
:1010000001602188090405D5A26E016821F4402100
:10101000114301602168C90305D5E26E016821F41E
:101020004011114301602168890305D5226F0168D1
:1010300021F4400111430160217800E034E14906C8
:1010400005D5626C016821F003011143016021782C
:10105000090605D5A26C016821F00C01114301605D
:101060002188C90505D5E26C016821F030011143E2
:1010700001602188890505D5226D016821F0C00134
:10108000114301602188490505D5626D016821F48D
:101090004071114301602188090505D5A26D0168E1
:1010A00021F44061114301602188C90407D5E26D34
:1010B000016821F4405100E05FE0114301602188A4
:1010C000890405D5226E016821F440411143016075
:1010D0002168490205D5A26F016821F080611143A2
:1010E000016021684FF0006A890209D5E26F01684A
:1010F00021F0006111430160E16F514500D10127EA
:1011000021680A0700D50127490305D5626F0168E8
:1011100021F04071114301602168090206D5D4F81D
:101120008020016821F0805111430160216849014C
:1011300006D5D4F88420016821F0005111430160E4
:101140002068000106D5D4F88810286820F00070C7
:10115000084328602068C00006D5D4F88C102868A1
:1011600020F0806008432860DFF84891012E0ED0FF
:101170002068B0F1007F0AD08FE04F4AD9F80030E4
:10118000104023F4F8120243C9F800201BE7D9F8F5
:1011900000004E4620F08060C9F80000FFF7D8FB41
:1011A000804605E0FFF7D4FBA0EB080064287BD85D
:1011B00030680001F6D421783C487C30C90712D051
:1011C000616B81B9237A62680168D0F800C092012E
:1011D000C1F3014142EA0142CCF3036142EA0161F9
:1011E00041EA0371016021680A0303D5E26BB2F59D
:1011F000801F04D0C9021AD5216C594517D16368E4
:10120000016894F80CC002689B01C1F3014143EAF4
:101210000141C2F3027241EA0C6141EA02710160CC
:101220002968626A21F01F01521E1143296021685A
:10123000C90110D5238A62680168D0F800C0920104
:10124000C1F3036142EA034242EA0162CCF3027154
:1012500042EA01710160216889010CD56168228A26
:10126000237B94F808C0890141EA024141EA036105
:1012700041EA0C7101603168B04641F08061316033
:10128000FFF766FB064604E0FFF762FB801B64285D
:101290000AD8D8F800000001F6D5E7B3D9F8000065
:1012A0004E4620F0805009E07BE000000838024004
:1012B0000070004000380240FFFCFF0FC9F800003A
:1012C000FFF746FB074604E0FFF742FBC01B64281C
:1012D00067D83068C0438000F6D5216835480A03D6
:1012E00001D5E26B1AB1C9021DD5216CD9B9636968
:1012F0000168277E02689B01C1F3014143EA014373
:10130000C2F3027143EA076242EA0171016029688F
:101310006FF0FF0300E04BE0A26A21F4F85103EB09
:101320000222114329602168890212D5E16F5145DB
:101330000FD1238C6269016807689201C1F30361D0
:1013400042EA034242EA0162C7F3027142EA0171D2
:1013500001602178090716D561690268D0F800C0DC
:101360008B01277FC2F30362CCF3014143EA0141C1
:1013700041EA026141EA077101602868E16A20F4EC
:10138000403008432860306840F080503060FFF7FC
:10139000DFFA044608E000BFFFF7DAFA001B642812
:1013A00002D90320BDE8F88F3068C0438000F3D431
:1013B0000020F7E7883802402DE9F04705000F4686
:1013C00063D0444E306800F00F00B84209D2306854
:1013D00020F00F0038433060306800F00F00B84252
:1013E00053D128683C4C810712D5400703D52068AB
:1013F00040F4E05020602878000703D5206840F4CE
:1014000060402060A968206820F0F0000843206058
:101410002878C0072AD0304968680839012810D0D8
:101420000968022810D0890700292EDA216821F0E6
:10143000030101432160FFF78BFA804641F28839AE
:101440000DE009688903EFE78901EDE7FFF780FA0E
:10145000A0EB0801494502D90320BDE8F087686880
:10146000216801F00C01B1EB800FEFD1306800F082
:101470000F00B8420BD9306820F00F0038433060BD
:10148000306800F00F00B84201D00120E5E728786D
:10149000400705D5E968206820F4E0500843206043
:1014A0002878000706D52869216821F4604141EABF
:1014B000C000206000F016F82168084AC1F303114B
:1014C000515CC840064908600020FFF76DFC002011
:1014D000C3E70000003C0240083802401820000822
:1014E00014000020154910B51548096811F00C02C8
:1014F00013D01449042A0FD0082A0ED10F4C241FF0
:101500002268236802F03F025B0207D52068C0F31F
:101510008810A0FB010106E0084610BD2168C1F358
:101520008811A1FB00010023FEF782FE2168C1F3B0
:101530000141491C4900B0FBF1F010BD08380240E0
:101540000024F40040787D012DE9F84F05004FF0AC
:1015500000076ED02878DFF82093A9F1040AC007AD
:10156000AAF104044CD0D9F800104846C1F3810117
:10157000012908D00068C0F3810002280AD1DAF8F6
:101580000000400206D52068800339D5686800282D
:10159000DFD035E06868B0F5803F0BD010B1B0F512
:1015A000A02F11D0206820F480302060206820F423
:1015B000802002E0206840F480302060686890B1AC
:1015C000FFF7C6F906460AE0206840F48020206054
:1015D000F0E700BFFFF7BCF9801B642872D82068D1
:1015E0008003F7D50CE0FFF7B3F9064605E000BF2E
:1015F000FFF7AEF9801B6428F0D820688003F7D489
:101600002878800742D5D9F80010484611F00C0F11
:1016100008D00068C0F3810002280BD1DAF800007E
:10162000400207D42068800718D5E868012800D157
:1016300014E01EE1E8680028206817D040F001009F
:101640002060FFF785F9064605E000BFFFF780F947
:10165000801B0228C2D820688007F7D52869216836
:1016600021F0F80141EAC00020600FE020F0010005
:101670002060FFF76DF9064605E000BFFFF768F947
:10168000801B02281ED820688007F7D4287800071E
:1016900029D5794869696C3000298046016812D0E3
:1016A00041F001010160FFF753F9064605E000BF74
:1016B000FFF74EF9801B022804D8D8F800008007F5
:1016C000F6D510E089E021F001010160FFF740F953
:1016D000064604E0FFF73CF9801B02287DD8D8F8C5
:1016E00000008007F6D4287840076BD5DFF88881A2
:1016F00008F13808D8F80000C0000BD4D8F8001062
:1017000041F08051C8F80010D8F80000012700F01F
:101710008050009059480168C90512D40168834679
:1017200041F480710160FFF713F9064605E000BF40
:10173000FFF70EF9801B64284FD8DBF80000C005C6
:10174000F6D54D4EA868683601280AD008B105289C
:1017500011D0306820F001003060306820F00400C3
:1017600002E0306840F001003060A868A0B1FFF7E7
:10177000EFF883460CE0306840F004003060F0E79A
:10178000FFF7E6F8A0EB0B0141F28830814268D800
:1017900030688007F4D50EE0FFF7DAF8834607E0FB
:1017A000FFF7D6F8A0EB0B0141F28830814258D800
:1017B00030688007F4D42FB1D8F8001021F08051A0
:1017C000C8F80010A869E0B3D9F80010C1F381018E
:1017D00002294ED00228206800E042E020F080700C
:1017E000206003D0FFF7B4F805463DE0FFF7B0F8FE
:1017F000064604E0FFF7ACF8801B022831D82068C9
:101800008001F7D4D5E90921DFF874C0D5E90706CE
:1018100095F830304F0895F82C1030430CEB074505
:1018200045EA8212104340EA016040EA0370CAF8B8
:101830000000206840F080702060FFF789F80546BE
:1018400005E014E0FFF784F8401B022809D820685F
:101850008001F7D50BE000BFFFF77AF8401B0228A4
:1018600002D90320BDE8F88F20688001F4D400205D
:10187000F8E70120F6E70000083802400070004059
:101880000000FFFF401EB0F1807F10B501D30120A2
:1018900010BD4FF0E02460610F21601700F052FA94
:1018A0000020A0610721216110BD000070B590F8F3
:1018B0003C20012A1FD0012280F83C2002680F4CF6
:1018C0005368A242956802D00D4CA24203D14C68E5
:1018D00023F4700323430C688968002623F0700307
:1018E0001C43546025F0800502682943916080F80C
:1018F0003C60304670BD022070BD00000000014019
:101900000004014010B5040003D094F83D0010B16C
:1019100007E0012010BD002084F83C00204600F0C4
:101920000DF8022084F83D002068211D00F08EFA99
:10193000012084F83D00002010BD000008B50068BB
:10194000B0F1804F08D10548016841F00101016004
:10195000006800F00100009008BD0000403802401F
:1019600070B5044690F83C00012817D03A4E012586
:1019700084F83C50022084F83D0022689068304092
:1019800020F47F4090600868502839D00DDC202872
:101990005BD005DC98B3102843D153E0022070BD22
:1019A000302855D040283CD141E0602830D0702804
:1019B0000CD0B0F5805F03D0B0F5005F31D112E0FC
:1019C0002068254A70328168114016E04A68206814
:1019D000D1E9021300F0A0FA21688868304040F095
:1019E000770088601DE04A682068D1E9021300F0A2
:1019F00093FA2068816841F48041816011E01EE023
:101A0000CA684968206800F098FA2068502106E00A
:101A1000CA684968206800F0A1FA2068602100F0D7
:101A200084FA002084F83D5084F83C0070BDCA68F8
:101A30004968206800F081FA20684021EFE72068BB
:101A40000021ECE720681021E9E720682021E6E783
:101A500020683021E3E7000088FFFEFFFEE7016811
:101A60008A69D243920701D400228A6200688169A0
:101A7000C943C90703D0816941F001018161704701
:101A80002DE9F0410446006890460E468069C04347
:101A9000C0062FD40025202720688069C043800617
:101AA00011D5701CF8D02EB1FEF752FFA0EB080044
:101AB000B042F1D984F8417084F84250032084F890
:101AC0004050BDE8F08121681020C8612068C761DE
:101AD0002046FFF7C4FF20680422074943680B40F3
:101AE0004360626484F8417084F84250012084F8B5
:101AF0004050E6E70020E4E700E800FE70B500682B
:101B0000C1F30901074E41EA0241049C4FF480658C
:101B10004268194305EA54553543AA4321430A4311
:101B2000426070BDFF63FF032DE9F0411D4617467B
:101B30000E460446DDF8188013E0681C11D02DB164
:101B4000FEF706FFA0EB0800A8420AD900202021DA
:101B500084F8411084F8420084F840000320BDE876
:101B6000F0812068806936EA000004D00020B84285
:101B7000E3D00020F3E70120F9E700002DE9F04170
:101B80000025904620260F46044633E0424639465B
:101B90002046FFF775FF10B10120BDE8F0812068F5
:101BA0008069C043800614D420688169C94349070D
:101BB00001D4218D19BB1349C661206842680A40CF
:101BC0004260656484F8416084F8425084F8405073
:101BD000E2E72FB1FEF7BCFEA0EB0800B84209D93E
:101BE000606C84F8405040F02000606484F84160EC
:101BF0000320D2E720688069C0434007C6D4002094
:101C0000CBE7000000E800FE70B516460D4604461E
:101C10001BE0324629462046FFF732FF08B101207B
:101C200070BD25B1FEF794FE801BA8420DD9626CF1
:101C3000002084F84000202142F02002626484F8F1
:101C4000411084F84200032070BD20688069C043C1
:101C50008006DED4002070BD70B516460D460446E1
:101C60001DE0324629462046FFF70AFF08B1012051
:101C700070BD681C13D025B1FEF76AFE801BA84218
:101C80000DD9626C002084F84000202142F020022F
:101C9000626484F8411084F84200032070BD20681B
:101CA0008069C0438007DCD4002070BD0E4800214D
:101CB00010B50C4C01230D4A0460C0E90121C0E9B4
:101CC000033141618161C1610162FEF79DFE0648F9
:101CD0000021FEF743FEBDE8104003480021FEF757
:101CE00069BE000000600040180000205B3D30002D
:101CF00010B588B011480024082200944FF08041AC
:101D000001944FF49653029403940494059406941A
:101D100080E81600C0E903348461FFF7F3FD4FF457
:101D20008050009005486946FFF71AFE034804A951
:101D300004940694FFF7BAFD08B010BD64000020BB
:101D4000FEE77047090700284FEA116106DA00F044
:101D50000F0000F1E02080F8141D704700F1E02032
:101D600080F80014704770477047FFF709B800000B
:101D700010B5B8B0342124A8FEF75DFC142131A8B9
:101D8000FEF759FC90216846FEF755FC184801689B
:101D900041F080510160006800F080503690154895
:101DA000016821F4404141F4804101600068022152
:101DB0000122249100F440403690102000242A94FF
:101DC000CDE9272024A8FFF7BFFB0F20CDE9310480
:101DD0000021339431A834943594FFF7EDFA4FF491
:101DE00000301C9400906846FFF748F838B010BDEA
:101DF0004038024000700040104A30B51048146866
:101E000000210F4B44F470041460083305680D4A38
:101E10000D4C45F00105056019600368051D134070
:101E2000074A03600C322C600568E305034C25F477
:101E300080250560803C1160236030BD88ED00E0A6
:101E400000380240FFFFF6FE10300024F0B5274BAB
:101E50004FF0804E264D02689842264E264F274C62
:101E600009D0704507D0A84205D0B04203D0B8428F
:101E700001D0A04205D1D1F804C022F070024CEA92
:101E8000020298421BD0704519D0A84217D0B04228
:101E900015D0B84213D0A04211D0194DA8420ED08F
:101EA000184DA8420BD0184DA84208D0174DA84293
:101EB00005D0174DA84202D0164DA84203D1CD68D7
:101EC00022F440722A434D6922F080022A430260C4
:101ED00098428A68C2620A68826201D0A04201D137
:101EE0000969016301214161F0BD0000000001406A
:101EF0000004004000080040000C004000040140C5
:101F000000400140004401400048014000180040EA
:101F1000001C00400020004042EA032283680A437C
:101F200023F47F410A4382607047826822F0700286
:101F30000A4342F007018160704710B5036A046AE2
:101F400023F00A0324F00104046284690B4324F0A3
:101F5000F00141EA02118161036210BD10B5036A0C
:101F600023F0100303628369046A23F4704324F0AE
:101F7000A00443EA0232826144EA0111016210BD09
:101F8000FEE702E008C8121F08C1002AFAD1704714
:101F90007047002001E001C1121F002AFBD17047E9
:101FA000A0B0FEF7F5FEFFF7E3FE1348016841F02D
:101FB00020010160006800F020001F90FFF776FE0E
:101FC000FFF796FE50216846FEF735FB0B4C0B4899
:101FD000FEF770FB20785021149014AB607808A2B3
:101FE0001590A07816906079401E1890207917906F
:101FF0006846FEF76FF9EAE730380240000000203B
:10200000256D2F2564202C202548202D20254D20AE
:102010002D202553000000000000000000000000FB
:1020200001020304060708094A616E7561727900AE
:102030004665627275617279004D61726368004134
:102040007072696C004D6179004A756E65004A7561
:102050006C79004175677573740053657074656DB4
:10206000626572004F63746F626572004E6F7665D1
:102070006D62657200446563656D626572000000A3
:10208000A02000080000002018000000821F0008A7
:10209000B82000081800002090040000921F0008DB
:1020A000000000000000000001000000100000001F
:0820B000000000000024F40010
:04000005080001F9F5
:00000001FF
